{
  "contractName": "JeuBlackjack",
  "abi": [
    {
      "inputs": [
        {
          "internalType": "contract JetonCasino",
          "name": "_jetonCasino",
          "type": "address"
        }
      ],
      "stateMutability": "nonpayable",
      "type": "constructor"
    },
    {
      "inputs": [],
      "name": "jetonCasino",
      "outputs": [
        {
          "internalType": "contract JetonCasino",
          "name": "",
          "type": "address"
        }
      ],
      "stateMutability": "view",
      "type": "function",
      "constant": true
    },
    {
      "inputs": [],
      "name": "owner",
      "outputs": [
        {
          "internalType": "address",
          "name": "",
          "type": "address"
        }
      ],
      "stateMutability": "view",
      "type": "function",
      "constant": true
    },
    {
      "inputs": [],
      "name": "tokenPrice",
      "outputs": [
        {
          "internalType": "uint256",
          "name": "",
          "type": "uint256"
        }
      ],
      "stateMutability": "view",
      "type": "function",
      "constant": true
    },
    {
      "stateMutability": "payable",
      "type": "receive",
      "payable": true
    },
    {
      "inputs": [
        {
          "internalType": "uint256",
          "name": "amount",
          "type": "uint256"
        }
      ],
      "name": "buyTokens",
      "outputs": [],
      "stateMutability": "payable",
      "type": "function",
      "payable": true
    },
    {
      "inputs": [
        {
          "internalType": "uint256",
          "name": "amount",
          "type": "uint256"
        }
      ],
      "name": "setAllowance",
      "outputs": [],
      "stateMutability": "nonpayable",
      "type": "function"
    },
    {
      "inputs": [
        {
          "internalType": "uint256",
          "name": "betAmount",
          "type": "uint256"
        }
      ],
      "name": "playBlackjack",
      "outputs": [],
      "stateMutability": "nonpayable",
      "type": "function"
    },
    {
      "inputs": [
        {
          "internalType": "uint256",
          "name": "tokenAmount",
          "type": "uint256"
        }
      ],
      "name": "withdrawETH",
      "outputs": [],
      "stateMutability": "nonpayable",
      "type": "function"
    }
  ],
  "bytecode": "0x6080604052660e35fa931a0000600155348015601a57600080fd5b50604051610a20380380610a208339810160408190526037916064565b600080546001600160a01b039092166001600160a01b031992831617905560028054909116331790556092565b600060208284031215607557600080fd5b81516001600160a01b0381168114608b57600080fd5b9392505050565b61097f806100a16000396000f3fe6080604052600436106100745760003560e01c80637ff9b5961161004e5780637ff9b596146100d55780638da5cb5b146100fe578063b32c2a3814610136578063f14210a61461015657600080fd5b80633610724e1461008057806337d5bdf6146100955780633ba93f26146100b557600080fd5b3661007b57005b600080fd5b61009361008e366004610886565b610176565b005b3480156100a157600080fd5b506100936100b0366004610886565b6103ba565b3480156100c157600080fd5b506100936100d0366004610886565b6105f1565b3480156100e157600080fd5b506100eb60015481565b6040519081526020015b60405180910390f35b34801561010a57600080fd5b5060025461011e906001600160a01b031681565b6040516001600160a01b0390911681526020016100f5565b34801561014257600080fd5b5060005461011e906001600160a01b031681565b34801561016257600080fd5b50610093610171366004610886565b610666565b60015461018390826108b5565b3410156101cf5760405162461bcd60e51b8152602060048201526015602482015274125b9cdd59999a58da595b9d08115512081cd95b9d605a1b60448201526064015b60405180910390fd5b6000546040516340c10f1960e01b8152336004820152602481018390526001600160a01b03909116906340c10f1990604401600060405180830381600087803b15801561021b57600080fd5b505af115801561022f573d6000803e3d6000fd5b5050600054604051636eb1769f60e11b815233600482015230602482018190526001600160a01b03909216935063095ea7b392508490849063dd62ed3e90604401602060405180830381865afa15801561028d573d6000803e3d6000fd5b505050506040513d601f19601f820116820180604052508101906102b191906108d2565b6102bb91906108eb565b6040516001600160e01b031960e085901b1681526001600160a01b03909216600483015260248201526044016020604051808303816000875af1158015610306573d6000803e3d6000fd5b505050506040513d601f19601f8201168201806040525081019061032a91906108fe565b50604051600090309034908381818185875af1925050503d806000811461036d576040519150601f19603f3d011682016040523d82523d6000602084013e610372565b606091505b50509050806103b65760405162461bcd60e51b815260206004820152601060248201526f2a3930b739b332b9103330b4b632b21760811b60448201526064016101c6565b5050565b600054604051636eb1769f60e11b815233600482015230602482015282916001600160a01b03169063dd62ed3e90604401602060405180830381865afa158015610408573d6000803e3d6000fd5b505050506040513d601f19601f8201168201806040525081019061042c91906108d2565b10156104725760405162461bcd60e51b8152602060048201526015602482015274426574206578636565647320616c6c6f77616e636560581b60448201526064016101c6565b6000546040516370a0823160e01b815233600482015282916001600160a01b0316906370a0823190602401602060405180830381865afa1580156104ba573d6000803e3d6000fd5b505050506040513d601f19601f820116820180604052508101906104de91906108d2565b10156105235760405162461bcd60e51b8152602060048201526014602482015273496e73756666696369656e742062616c616e636560601b60448201526064016101c6565b6000610530600242610927565b15905080156105b45760005460405163a9059cbb60e01b8152336004820152602481018490526001600160a01b039091169063a9059cbb906044015b6020604051808303816000875af115801561058b573d6000803e3d6000fd5b505050506040513d601f19601f820116820180604052508101906105af91906108fe565b505050565b6000546040516323b872dd60e01b8152336004820152306024820152604481018490526001600160a01b03909116906323b872dd9060640161056c565b60005460405163095ea7b360e01b8152306004820152602481018390526001600160a01b039091169063095ea7b3906044016020604051808303816000875af1158015610642573d6000803e3d6000fd5b505050506040513d601f19601f820116820180604052508101906103b691906108fe565b600081116106b65760405162461bcd60e51b815260206004820181905260248201527f416d6f756e74206d7573742062652067726561746572207468616e207a65726f60448201526064016101c6565b600080546040516370a0823160e01b81523360048201526001600160a01b03909116906370a0823190602401602060405180830381865afa1580156106ff573d6000803e3d6000fd5b505050506040513d601f19601f8201168201806040525081019061072391906108d2565b9050818110156107755760405162461bcd60e51b815260206004820152601a60248201527f496e73756666696369656e7420746f6b656e2062616c616e636500000000000060448201526064016101c6565b60006001548361078591906108b5565b9050804710156107d75760405162461bcd60e51b815260206004820152601c60248201527f496e73756666696369656e742045544820696e20636f6e74726163740000000060448201526064016101c6565b6000546040516323b872dd60e01b8152336004820152306024820152604481018590526001600160a01b03909116906323b872dd906064016020604051808303816000875af115801561082e573d6000803e3d6000fd5b505050506040513d601f19601f8201168201806040525081019061085291906108fe565b50604051339082156108fc029083906000818181858888f19350505050158015610880573d6000803e3d6000fd5b50505050565b60006020828403121561089857600080fd5b5035919050565b634e487b7160e01b600052601160045260246000fd5b80820281158282048414176108cc576108cc61089f565b92915050565b6000602082840312156108e457600080fd5b5051919050565b808201808211156108cc576108cc61089f565b60006020828403121561091057600080fd5b8151801515811461092057600080fd5b9392505050565b60008261094457634e487b7160e01b600052601260045260246000fd5b50069056fea264697066735822122019799fb83e6079e25db02350835e2a4b8d6dcb573732ef0d4bb3657f7d232dc764736f6c63430008190033",
  "immutableReferences": {},
  "source": "// SPDX-License-Identifier: MIT\r\npragma solidity ^0.8.0;\r\n\r\nimport \"./JetonCasino.sol\";\r\n\r\ncontract JeuBlackjack {\r\n    JetonCasino public jetonCasino;\r\n    uint256 public tokenPrice = 0.004 ether;\r\n    address public owner;\r\n\r\n    constructor(JetonCasino _jetonCasino) {\r\n        jetonCasino = _jetonCasino;\r\n        owner = msg.sender;\r\n    }\r\n\r\n    function buyTokens(uint256 amount) public payable {\r\n    require(msg.value >= amount * tokenPrice, \"Insufficient ETH sent\");\r\n    jetonCasino.mint(msg.sender, amount);\r\n    jetonCasino.approve(address(this), jetonCasino.allowance(msg.sender, address(this)) + amount);\r\n    (bool success, ) = payable(address(this)).call{value: msg.value}(\"\");\r\n    require(success, \"Transfer failed.\");\r\n}\r\n    function setAllowance(uint256 amount) public {\r\n        jetonCasino.approve(address(this), amount);\r\n    }\r\n\r\n    function playBlackjack(uint256 betAmount) public {\r\n        require(jetonCasino.allowance(msg.sender, address(this)) >= betAmount, \"Bet exceeds allowance\");\r\n        require(jetonCasino.balanceOf(msg.sender) >= betAmount, \"Insufficient balance\");\r\n        bool playerWins = (block.timestamp % 2) == 0; // Heads or tails\r\n        if (playerWins) {\r\n            jetonCasino.transfer(msg.sender, betAmount);\r\n        } else {\r\n            jetonCasino.transferFrom(msg.sender, address(this), betAmount);\r\n        }\r\n    }\r\nfunction withdrawETH(uint256 tokenAmount) public {\r\n        require(tokenAmount > 0, \"Amount must be greater than zero\");\r\n        uint256 tokenBalance = jetonCasino.balanceOf(msg.sender);\r\n        require(tokenBalance >= tokenAmount, \"Insufficient token balance\");\r\n\r\n        \r\n        uint256 ethAmount = tokenAmount * tokenPrice;\r\n\r\n        // Vrifier si le contrat a suffisamment d'ETH\r\n        require(address(this).balance >= ethAmount, \"Insufficient ETH in contract\");\r\n\r\n        // Transfrer les jetons du portefeuille de l'utilisateur au contrat\r\n        jetonCasino.transferFrom(msg.sender, address(this), tokenAmount);\r\n\r\n        // Envoyer l'ETH  l'utilisateur\r\n        payable(msg.sender).transfer(ethAmount);\r\n    }\r\n\r\n\r\n    receive() external payable {}\r\n}\r\n\r\n\r\n\r\n\r\n\r\n\r\n\r\n",
  "sourcePath": "C:\\Users\\21264\\Blackjack_grp-main\\blockchain\\contracts\\JeuBlackjack.sol",
  "compiler": {
    "name": "solc",
    "version": "0.8.25+commit.b61c2a91.Emscripten.clang"
  },
  "schemaVersion": "3.4.16",
  "updatedAt": "2024-05-12T03:22:58.079Z",
  "networkType": "ethereum",
  "devdoc": {
    "kind": "dev",
    "methods": {},
    "version": 1
  },
  "userdoc": {
    "kind": "user",
    "methods": {},
    "version": 1
  }
}